:100A630004AE530A57485526BD0D26500D954446EE
:100A7300AAB9056A4D09AD4224AEB604AE4A6A4D21
:100A8300BE0A4D520D25465D52BA0B544E0D6A43B4
:100A9300296D37095B4B749BC10497540A4B485B20
:100AA30025BC06A55006D4454ADAB802B64D095707
:100AB300422497B704974A664B3E0D4A510EA5460A
:100AC30056D4BA05AD4E02B644393738092E4B7C9D
:100AD30096BF0C95530D4A486DA53B0B554F056AC0
:100AE300454AADB9025D4D092D422C95B60A954A8A
:100AF3007B4ABD06CA510B5546555ABB04DA4E0A0A
:100B03005B43352BB8052B4C8A953F0E955206AAAD
:100B1300487AD53C0AB54F04B6454A57390A574D6A
:100B23000526423E93350D954975AABE056A5109BE
:100B33006D4654AEBB04AD4F0A4D434D26B70D254C
:100B43004B8D52BF0B54520B6A47696D3C095B5086
:100B5300049B454A4BB90A4B4DAB25C206A5540627
:100B6300D4496ADA3D0AB6510937465497BB04970C
:100B73004F064B4436A5370EA54A86B2BF05AC5384
:100B83000AB6475936BC092E500C96454D4AB80D46
:100B93004A4C0DA54125AAB6056A497AADBD025D49
:100BA30052092D475C95BA0A954E0B4A434B55376C
:100BB3000AD54A955ABF04BA530A5B48652BBC054C
:100BC3002B500A9345474AB906AA4C0AD54124DA61
:100BD300B604B64A69573D0A4E510D26465E933A0E
:100BE3000D534D05AA4336B537096D4BB4AEBF045B
:100BF300AD530A4D486D25BC0D254F0D52445DAADA
:100C0300380B5A4C056D4124ADB6049B4A7A4BBE52
:100C13000A4B510AA5465B52BA06D24E0ADA42354E
:100C23005B3709374B8497C1049753064B4866A536
:100C33003C0EA54F06B2444AB6380AAE4C092E42C2
:100C43003C97350C96497D4ABD0D4A510DA5455536
:100C5300AABA056A4E0A6D43452EB7052D4B8A95F0
:100C6300BF0A95530B4A476B553B0AD54F055A4567
:100C73004A5D380A5B4C052B423A93B60693497793
:100C830029BD06AA510AD54654DABA04B64E0A5704
:100C9300434527380D264A8E933E0D52520DAA47DF
:100CA30066B53B056D4F04AE454A4EB90A4D4C0D32
:100CB30015412D92B5001F3B5A7897B5D4F3011116
:100CC3000130014E0003030601040602050003057B
:100CD300323020202D20202D2020200020203A20DB
:100CE300203A2020004E4C3A20202D20202D202079
:100CF3002050494E47004E4C3A20202D20202D20D5
:100D0300202052554E200074696D65723A202020D0
:100D1300202D20202D2020002020202020202020D6
:0E0D230020202020202020200074696D650013
:1017C700C18301230C012200013B00C102C104C1F6
:0117D7000110
:06116300AD14AC13AF1047
:10116900EF14B40D0040030212AC90118175F00325
:10117900A4C58325F0C583730211A80211BC02110D
:10118900D00211E40211F802120C021220021234E8
:1011990002124802125C021270021284021298743E
:1011A900632DF582740A3CF583E49354087002C3F5
:1011B90022D32274632DF582740A3CF583E4935497
:1011C900047002C322D32274632DF582740A3CF59C
:1011D90083E49354027002C322D32274632DF582EF
:1011E900740A3CF583E49354017002C322D3227438
:1011F900642DF582740A3CF583E49354807002C32C
:1012090022D32274642DF582740A3CF583E4935445
:10121900407002C322D32274642DF582740A3CF50E
:1012290083E49354207002C322D32274642DF5827F
:10123900740A3CF583E49354107002C322D32274D8
:10124900642DF582740A3CF583E49354087002C353
:1012590022D32274642DF582740A3CF583E49354F5
:10126900047002C322D32274642DF582740A3CF5FA
:1012790083E49354027002C322D32274642DF5824D
:10128900740A3CF583E49354017002C322D3227497
:10129900652DF582740A3CF583E49354807002C38A
:0412A90022D322C367
:0112AD00221E
:100D3100E50CC4540FFBE50C540FFAEBC454F02A34
:100D4100F50CE50DC4540FFBE50D540FFAEBC4543B
:100D5100F02AF50DE50EC4540FFBE50E540FFAEB26
:100D6100C454F02AF50EE50C2005072463FFE43393
:100D7100800624FFFFE434FFFE7C007D031209EEB0
:100D81008E138F1474652514F582740A3513F58357
:100D9100E493FE5460FB7805FF08800103D8FDFB56
:100DA100EE541FFABB010514F50F8005EA241EF568
:100DB1000FE50DC3940AE50D500B900CB793250E6A
:100DC100FFE433801525E024ADF582E4340CF5838E
:100DD100740193250EFFE4933400CF24FFF512EF45
:100DE10034FFF511E50DD39402400EE50C54037068
:100DF100080512E51270020511AF0F7E00C3E5125E
:100E01009FE5119E4079E5129FF512E5119EF511BE
:100E1100750D017510011211639206C207200604B7
:100E21007B1D80027B1E74632514F582740A3513C1
:100E3100F583E49354F0FA7804FF08800103D8FDA8
:100E4100FAEBFF7E00C3E5129FE5119E402CE512EF
:100E51009FF512E5119EF5110510E50DB50209B2D8
:100E610007200706050D8002050D12116392062069
:100E710006047B1D80CB7B1E80C7E512020F05C3D4
:100E8100E50F9512F50FE50C7007750C63D205801F
:100E910002150C74FD2514F51474FF3513F5137543
:100EA1000D0CFE74632514F582740A3EF583E493F8
:100EB10054F0FA7804FF08800103D8FDFA70057533
:100EC100100C800375100DC20712116392062006E3
:100ED100047B1D80027B1EE50FD39B4023E50F9B06
:100EE100F50F1510200702150DE50DB50202B20729
:100EF10012116392062006047B1D80DB7B1E80D7C6
:100F0100C3EB950F04F50EA2059200E50C75F00AEE
:100F110084FB7804FF08800123D8FDFBE50C75F004
:100F21000A84AAF0EB4AF532E50D75F00A84FB78E4
:100F310004FF08800123D8FDFBE50D75F00A84AAA2
:100F4100F0EB4AF530E50E75F00A84FB7804FF08F2
:100F5100800123D8FDFBE50E75F00A84AAF0EB4A67
:020F6100F53663
:010F6300226B
:1015D30074642FFF1313543F2F75F00784AEF0EE9E
:1015E3002BFEED900CC6932EFEEF54037007EDC354
:0D15F300940350011EEE75F0078485F02A68
:0116000022C7
:0B000E00EF1FAC0670011E4C70F622C4
:10162C00E4FDD2B77F08FE12000EC2B77F507E00D9
:10163C0012000ED2B77F0E7E0012000EA2B7E4335A
:08164C00FD7F147E0002000E78
:1016C200E4FB7D08C2B7EBC313FBD2B730B70343C9
:0D16D20003807F047E0012000EDDE9AF03EF
:0116DF0022E8
:02175600AD07DD
:101758007B08C2B7ED1392B77F057E0012000ED248
:07176800B7EDC313FDDBEB3D
:01176F002257
:10146000E4FAFFFDFCF50FF50EF50DF50C12162C48
:101470007FCC1217567F4412175612162C7FCC12AF
:1014800017567FBE1217561216C2AA071216C2AD01
:1014900007EDFCEAFDC394FFEC940F5005E4F5243E
:1014A0008010EDF4FFECF4FEEF2402FDE43EFC7549
:1014B0002401E4120934E4FBFA7920783F12082968
:0D14C000E4FBFA79A0784012073812096D9C
:0114CD0022FC
:0A165400C203E4F521C2B57F14FEC5
:10165E00D3EF9400EE940040147D6E7C00ED1D706F
:0D166E00011CED4C70F7EF1F70E61E80E3CD
:01167B00224C
:0516E000E50C24C0FF31
:1016E500C2A6C2A58F807F017E0012165ED2A77F9B
:0916F500017E0012165EC2A7225C
:0716A200900CDFE53993FF16
:1016A900D2A6C2A58F807F017E0012165ED2A77FC7
:0916B900017E0012165EC2A72298
:101530007F381216E57F0C1216E57F061216E57F3E
:10154000011216E57F811216E5E4F539900CD312ED
:1015500016A50539E539C3940E40F17FC01216E592
:10156000E4F5391216A20539E539C3940840F4228E
:06177000C2B5C2B6D2B5FD
:10177600EFD2B5753908A2E092B4C2B6D2B6C31399
:04178600D539F3223C
:10179F00D2B5753908A2B492E7D2B6C2B6C313D583
:0417AF0039F3FF22E9
:1015A400AD297F06121582E52975F00A84C454F02A
:1015B400FFE52975F00A84EF25F0F52BE4FD7F8E15
:0F15C400AE05121770AF06121776D2B6C2B52257
:0A17E70012177012179FD2B6C2B598
:0117F10022D5
:0317B3001217E723
:1017B600EFC4540FFEEF540FFDEE75F00AA42DFF93
:0117C6002200
:0E17D900C2B5C2B61215C07D807F8E0215C447
:0612AE008F0CAB05AA0441
:1012B4007C037DE8AF03AE02120A008F0F7C037D2E
:1012C400E8AF03AE02120A007E007F64CFCDCFCE1A
:1012D400CCCE120A008F0E7C007D64AF03AE0212E6
:1012E4000A007E007F0ACFCDCFCECCCE120A008F6B
:1012F4000DAE02AF037C007D0A120A00AB05E524A3
:10130400640170071216E07F2D80081216E0E50FC5
:101314002430FF1216A9E50E2430FF1216A9E50D9C
:101324002430FF1216A97F2E1216A9EB2430FF12C7
:0C13340016A97FDF1216A97F431216A92C
:01134000228A
:10157000AD237F08121582AD227F0B121582AD3B81
:021580007F0EDC
:10158200ED75F00A84ABF0ED75F00A84FAEF24C031
:10159200FF1216E5EA2430FF1216A9EB2430FF02EF
:0215A20016A988
:04167C00AD377F09FE
:10168000ED75F00A84ABF0ED75F00A84FAEF248072
:10169000FF1216E5EA2430FF1216A9EB2430FF02F0
:0216A00016A989
:1016FE00ED540FFBEDC4540FFAEF24C0FF1216E5A4
:0E170E00EA2430FF1216A9EB2430FF0216A9C0
:0B134100AB37AD33AF281215D3AF2A35
:10134C00AB077F8C1216E5EBB40700507A90136054
:10135C00F82828730213C402137502137E02138C2F
:10136C0002139A0213A80213B67F4D1216A97F4FCF
:10137C00804D7F541216A97F551216A97F458044C3
:10138C007F571216A97F451216A97F4480367F54C9
:10139C001216A97F481216A97F5580287F4612166F
:1013AC00A97F521216A97F49801A7F531216A97F62
:1013BC00541216A97F41800C7F531216A97F551227
:0813CC0016A97F4E1216A9229A
:10001E0020B3347F097E0012165E20B32AC203E499
:10002E00F521E52D701EE53A701A121659D2B5302B
:10003E008E04C28E800E0534E534B40307E4F52D2C
:10004E00F53AF53430B3FD30B0030201437F097E3B
:10005E000012165E30B003020143121654D2B530B0
:10006E00B0FDE53464027057053AE53AB40407E48E
:10007E00F53AF52DD202E53A14603314603414606B
:10008E0035240360030201437F0C1216E57FC01274
:10009E0016E5E4F539E539900D0A93FF1216A90518
:1000AE0039E539C3941040ED1215700201437FCF2C
:1000BE0080067FCC80027FC91216E57F0F8059E53E
:1000CE00347072052DE52DB40703E4F52DE52DB43E
:1000DE00070050619000E9F828287302012B0200F6
:1000EE00FE02011402011802011C02012002012469
:1000FE00C28C7FC71216E57F0F1216E51215ABE5FF
:10010E002B4480FD80237FC4800E7FC1800A7F8AAE
:10011E0080067F8780027F841216E580187F0C127E
:10012E0016E5D28C1215ABAD2B7F801215C47D80D7
:10013E007F8E1215C4E52D7003020667E53A600343
:10014E0002066730B1030203DD7F0AFE12165E302F
:10015E00B1030203DD121654D2B530B1FDE52D24E4
:10016E00FE603C14606C14700302021314700302E0
:10017E0002BF147003020361240560030203DD0550
:10018E0029E529B43C03E4F5291215A4AD2B7F8093
:10019E001215C47D807F8E1215C47FC70203DA0547
:1001AE002CE52CB43C03E4F52CAD2C7F0312158208
:1001BE00E52C75F00A84C454F0FFE52C1215B7AD8A
:1001CE002B7F821215C47D807F8E1215C47FC402D0
:1001DE0003DA0531E531B41803E4F531AD31E4FF4E
:1001EE00121582E53175F00A84C454F0FFE5311220
:1001FE0015B7AD2B7F841215C47D807F8E1215C46A
:10020E007FC10203DA0537E533640C6023E53364FE
:10021E000A601DE53364086017E53364076011E575
:10022E00336405600BE53364036005E533B40109FF
:10023E00E537C394204052804DE53364026009E5F2
:10024E0037C3941F4043803EE52854037031E528A0
:10025E0075F06484E5F0701EAF28FE7C017D90126F
:10026E000A00ED4C7023E537B41E028019E537C342
:10027E00941D40158010E537D3941D400C8007E582
:10028E0037C3941D400375370112134112167CE5D6
:10029E003775F00A84C454F0FFE5371215B7AD2B4D
:1002AE007F861215C47D807F8E1215C47F8A02034D
:1002BE00DA0533E533B40D03753301E533640B60B2
:1002CE0011E5336409600BE53364066005E533B46C
:1002DE00040CE537D3941E404E75371E8046E53329
:1002EE0064027043E52854037030E52875F0648489
:1002FE00E5F0701AAF28FE7C017D90120A00ED4CDD
:10030E007025E537D3941D401E75371D8016E537D1
:10031E00D3941D401275371D800AE537D3941C40C7
:10032E000675371C12167C121341AD337F0612165A
:10033E0080E53375F00A84C454F0FFE5331215B727
:10034E00AD2B7F881215C47D807F8E1215C47F87DA
:10035E000203DA0528E528B46403E4F528E53364DE
:10036E00027040E5285403702DE52875F06484E58D
:10037E00F07017AF28FE7C017D90120A00ED4C70D4
:10038E0022E537D3941D401B8007E537D3941D40DB
:10039E001275371D800AE537D3941C400675371C3D
:1003AE0012167C121341AD287F03121680E52875B4
:1003BE00F00A84C454F0FFE5281215B7AD2B7F8CDC
:1003CE001215C47D807F8E1215C47F841216E530FF
:1003DE00B2030206677F0A7E0012165E30B2030277
:1003EE000667121654D2B530B2FDE52D24FE603CE0
:1003FE0014606C1470030204A014700302054514FB
:10040E0070030205E3240560030206671529E5293A
:10041E00B4FF0375293B1215A4AD2B7F801215C4B2
:10042E007D807F8E1215C47FC7020664152CE52CC5
:10043E00B4FF03752C3BAD2C7F03121582E52C7592
:10044E00F00A84C454F0FFE52C1215B7AD2B7F8251
:10045E001215C47D807F8E1215C47FC402066415EA
:10046E0031E531B4FF03753117AD31E4FF1215825A
:10047E00E53175F00A84C454F0FFE5311215B7ADBD
:10048E002B7F841215C47D807F8E1215C47FC1020E
:10049E0006641537E533640C6023E533640A601D8A
:1004AE00E53364086017E53364076011E5336405CE
:1004BE00600BE53364036005E533B40109E537707D
:1004CE004E75371F8049E53364026009E537703F8A
:1004DE0075371E803AE5285403702DE52875F064B3
:1004EE0084E5F0701AAF28FE7C017D90120A00EDB3
:1004FE004C701CE5377002800AE5377012800DE5EE
:10050E0037700C75371D8007E537700375371C1271
:10051E00134112167CE53775F00A84C454F0FFE5DA
:10052E00371215B7AD2B7F861215C47D807F8E12C4
:10053E0015C47F8A020664D5330375330CE5336424
:10054E000B6011E5336409600BE53364066005E565
:10055E0033B4040CE537D3941E404E75371E8046D7
:10056E00E53364027043E52854037030E52875F0D6
:10057E006484E5F0701AAF28FE7C017D90120A00AB
:10058E00ED4C7025E537D3941D401E75371D801632
:10059E00E537D3941D401275371D800AE537D39485
:1005AE001C400675371C12167C121341AD337F06A4
:1005BE00121680E53375F00A84C454F0FFE5331249
:1005CE0015B7AD2B7F881215C47D807F8E1215C492
:1005DE007F870206641528E528B4FF03752863E5B6
:1005EE0028B46403E4F528E53364027040E528542A
:1005FE0003702DE52875F06484E5F07017AF28FEC2
:10060E007C017D90120A00ED4C7022E537D3941DCB
:10061E00401B8007E537D3941D401275371D800AA5
:10062E00E537D3941C400675371C12167C12134105
:10063E00AD287F03121680E52875F00A84C454F0A5
:10064E00FFE5281215B7AD2B7F8C1215C47D807F68
:10065E008E1215C47F841216E5E53A700302073038
:10066E00E52D600302073020B15A7F0AFE12165E96
:10067E0020B151121654D2B530B1FDE53A24FE60C8
:10068E001814602A2402703C053BE53BB43C03E49D
:10069E00F53B12157E7FCF80280522E522B43C0360
:1006AE00E4F522AD227F0B1215827FCC8013052339
:1006BE00E523B41803E4F523AD237F081215827FDA
:1006CE00C91216E520B25B7F0A7E0012165E20B2BA
:1006DE0051121654D2B530B2FDE53A24FE6018140C
:1006EE00602A2402703C153BE53BB4FF03753B3B8F
:1006FE0012157E7FCF80281522E522B4FF037522C6
:10070E003BAD227F0B1215827FCC80131523E52380
:10071E00B4FF03752317AD237F081215827FC9120C
:03072E0016E522AB
:10171C00758911E4F58CF58A758D3C758BB0D2AF5B
:0D172C00D2A9D2ABD28AC288D28CC28E2242
:10160100E531B5230BE52CB52206E5297002D28E12
:10161100E531B52315E5222401FFE433FEE52CB5C0
:0B1621000708E4B50604C28ED2B52213
:10178A00C2B57F057E0012165ED2B5052FE52FB5CC
:05179A003502C204222B
:1014CE007590FF1215301217D912171CD287C2B59C
:1014DE007F507E0012165ED2B512001EA2039287B6
:1014EE00300203121601E52C7024E5297020E53137
:1014FE00D3940C4008E53124F4F535800CE53170B9
:10150E000575350C8003853135852927D2043004C5
:10151E00C812178A12001EE527652960F78529274C
:02152E0080B784
:03000B00020F647D
:100F6400C0E0C0F0C083C082C0D075D000C000C053
:100F740001C002C003C004C005C006C00712162C7D
:100F84001214608E258F267F811217B38F297F83D9
:100F94001217B38F2C7F851217E71217B68F317F84
:100FA400871217E71217B68F377F891217E71217C0
:100FB400B68F337F8D1217E71217B68F28200315CB
:100FC400E52E6529600585292E0521E521B40A054C
:0E0FD400D203752100E534640160030210AA07
:100FE200F50A85280BFEE50B54F0FF7C007D0A1202
:100FF20009EEEF24D0FFE50B2FFF750800EF540F29
:10100200F509AE08FF0C7D90120A00ED4C6015AE9A
:1010120008AF097C007D64120A00ED4C600AE50904
:1010220054037004D2018002C201C20585280C85D6
:10103200330D85370E120D317FC01216E57539005A
:10104200E539200105900CE88003900CF993FF121A
:1010520016A90539E539C3941040E5AD327F031274
:1010620016FEAD307F061216FEAD367F091216FE51
:1010720012001EE534640160F77FC01216E575396F
:1010820000E539900D1B93FF1216A90539E539C306
:10109200941040ED7FC01216E57539001216A205B4
:0810A20039E539C3940840F45C
:1010AA00E534640270587FC01216E5753900E539D7
:1010BA00900D0A93FF1216A90539E539C394104019
:1010CA00ED12157012001EE534640260F77FC0123B
:1010DA0016E5753900E539900D1B93FF1216A9051F
:1010EA0039E539C3941040ED7FC01216E575390011
:1010FA001216A20539E539C3940840F4802C12145B
:10110A0060EF24FBF526EE34FFF525AD26FC7F09BA
:10111A001212AE8000AD297F06121582AD2C7F0314
:10112A00121582AD31E4FF12158212167CAD337F9F
:10113A0006121680AD287F03121680121341D007BB
:10114A00D006D005D004D003D002D001D000D0D030
:09115A00D082D083D0F0D0E03245
:03001B0002173990
:10173900C0E0C0D0758D3C758BB0D28E0538E538C8
:0D174900B40A05753800B2B5D0D0D0E0323A
:100731000209D9E86480F8E933E83360110460F014
:10074100ED33EC337009E8FCE9FDEAFEEBFF22042E
:1007510060DED3EB9FEA9EE99DE8C2E78CF0C2F729
:1007610095F0400CE8CCF8E9CDF9EACEFAEBCFFBF5
:100771001209A485D0F05804700320D5B3E80470A1
:10078100075002B2D50209E392D5EC0460F7E4CC3C
:10079100C0E0C398F8603B94186008400DD0E0FBBE
:1007A1000209BBE4FBFAC9FC8028E830E406E4C98D
:1007B100FBE4CAFCE830E305E4C9CACBFCE8540712
:1007C1006010F8C3E913F9EA13FAEB13FBEC13FC1D
:1007D100D8F130F52FC3E49CFCEF9BFFEE9AFEEDC0
:1007E10099FDD0E0FBEF4E4D4C701222DB03020964
:1007F100E0EC2CFCEF33FFEE33FEED33FDED30E7A3
:10080100EB0209BBEF2BFFEE3AFEED39FDD0E0FB29
:1008110050130BBB00030209E3ED13FDEE13FEEFD2
:0808210013FFEC13FC0209BBFC
:10082900EC4D6011E8497017ED33EC3304600DE4C9
:10083900FCFFFEFD22E933E8330470F80209D912FE
:1008490009A458046009E4CC2481500628500902FF
:1008590009E32840030209E0C0E0EB4A7044B9808B
:1008690006D0E0FB0209CFEF4E701CBD8008EBFFFC
:10087900EAFEE9FD80EBE98DF0A4FEE5F00209123C
:10088900E9CDF9EAFEEBFFEF89F0A4FCE5F0CE89AA
:10089900F0A42EFFE435F0CD89F0A42DFEE435F067
:1008A9008067EF4E7005BD80D780C3EF8BF0A4AC95
:1008B900F0EE8BF0A42CFCE435F0F8EF8AF0A42CD0
:1008C900E5F038FCE433CB8DF0A42CFCE5F03BF8E3
:1008D900EE8AF0A42CFCE5F038F8E433CF89F0A4D3
:1008E9002CFCE5F038CF3400CE89F0A42FFFE5F0D9
:1008F9003EFEE433C98DF0A42EFEE5F039CD8AF031
:10090900A42FFFE5F03EFEE43DFD33D0E0FB5007A8
:100919000BBB000F0209E3EC2CFCEF33FFEE33FEB7
:06092900ED33FD0209BBE5
:10092F0075F020800E75F010800575F0087D007E43
:10093F00007F003392D530D503120A55EC334010A7
:10094F00EF33FFEE33FEED33FDEC33FCD5F0ED224C
:0E095F00E5F0247EA2D513CC92E7CDCEFF2288
:10096D00EDD2E7CD33EC3392D524814006E4FFFE82
:10097D00FDFC22FCE4CFCECDCC24E0501174FF80E1
:10098D00EDC3CC13CCCD13CDCE13CECF13CF04707E
:07099D00F030D5DE020A551F
:1009A400E9D2E7C933E833F892D5EDD2E7CD33EC99
:0709B40033FC5002B2D52212
:1009BB00EC30E7100FBF000C0EBE00080DBD00049D
:1009CB000BEB6014A2D5EB13FCED92E7FD2274FF49
:1009DB00FCFDFEFF22E480F8A2D574FF13FC7D80A2
:0309EB00E480EFB6
:030000000213D414
:0C13D400787FE4F6D8FD75813B02141B05
:1009EE00EF8DF0A4A8F0CF8CF0A428CE8DF0A42E1D
:0209FE00FE22D7
:100A0000BC000BBE0029EF8DF084FFADF022E4CCDA
:100A1000F875F008EF2FFFEE33FEEC33FCEE9DECA3
:100A2000984005FCEE9DFE0FD5F0E9E4CEFD22EDE9
:100A3000F8F5F0EE8420D21CFEADF075F008EF2F33
:100A4000FFED33FD4007985006D5F0F222C398FD24
:050A50000FD5F0EA22C1
:0E0A5500C3E49FFFE49EFEE49DFDE49CFC22B2
:1013E0000214CEE493A3F8E493A34003F68001F241
:1013F00008DFF48029E493A3F85407240CC8C3330E
:10140000C4540F4420C8834004F456800146F6DFDC
:10141000E4800B01020408102040809017C7E47E8E
:10142000019360BCA3FF543F30E509541FFEE493D1
:10143000A360010ECF54C025E060A840B8E493A398
:10144000FAE493A3F8E493A3C8C582C8CAC583CAC3
:10145000F0A3C8C582C8CAC583CADFE9DEE780BE7B
:0117D8000010
:00000001FF
