:04014500020A0000AA
:0B013A00EF1FAC0670011E4C70F62297
:1000F60020B31E7FE87E0312013A20B311E50B45BB
:100106000A70047F0180027F00750A008F0B20B3FE
:02011600FD22C8
:1001180020B11E7FE87E0312013A20B111E50B459C
:100128000A70047F0180027F00750A008F0B30B1CE
:02013800FD22A6
:10008F007508007509011201181200F6E50B450AF3
:10009F0060F4E509F4F5A07FF47E011200CBE509C9
:1000AF0025E0F509E50833F508D3E5099480E5085F
:0C00BF00940040D875080075090180D03D
:1000CB00AB07AA06D3EB9400EA9400401B90006E9A
:1000DB00120118E582158270021583E58245837043
:0B00EB00EFEB1B70DF1A80DC0200F658
:03000000020003F8
:0C000300787FE4F6D8FD75810B02004AFE
:10000F0002008FE493A3F8E493A34003F68001F278
:10001F0008DFF48029E493A3F85407240CC8C333F2
:10002F00C4540F4420C8834004F456800146F6DFC1
:10003F00E4800B0102040810204080900145E47E0B
:10004F00019360BCA3FF543F30E509541FFEE493B6
:10005F00A360010ECF54C025E060A840B8E493A37D
:10006F00FAE493A3F8E493A3C8C582C8CAC583CAA8
:10007F00F0A3C8C582C8CAC583CADFE9DEE780BE60
:0101490000B5
:00000001FF
