:040138007F017E00C5
:0B013C00EF1FAC0670011E4C70F62295
:06011400C2A07FC07E5D69
:10011A00D3EF9400EE940040147D647C00ED1D70D2
:0D012A00011CED4C70F7EF1F70E61E80E326
:0101370022A5
:09015300D288D2A8D2AFD2B222A8
:1000EB001201533094083090051201148002D2A0F3
:1000FB00E50BC4540FFFBF04EAE50B540FFFBF051C
:09010B00E2120114E4F50B80DAA4
:03000300020006F2
:10000600C0E0C0D075D000C000C002C003C004C0AC
:0500160005C006C00753
:10001B007508007FBC7E0212013C30B2030200D88F
:10002B007BE87A0320B213D3EB9400EA9400400AE6
:10003B00120138EB1B70ED1A80EA20B2030200D8D4
:10004B007A017BF430B213D3EB9400EA9400400AAC
:10005B00120138EB1B70ED1A80EAE4FD750F007A84
:10006B00007B3C20B213D3EB9400EA9400400A12BD
:10007B000138EB1B70ED1A80EA7A017BF430B22069
:10008B00D3EB9400EA940040177F0A7E0012013CE8
:10009B000508EB1B70011AE508D3941E40DF802D79
:1000AB0074092DF8C000E6C313D000F6E508C3941D
:1000BB0008400874092DF8E64480F6750800050F12
:0D00CB00E50FC3940840980DED6404708F9C
:1000D800D007D006D005D004D003D002D000D0D0AD
:0300E800D0E03233
:03000000020147B3
:0C014700787FE4F6D8FD75810F0200EB14
:00000001FF
