:1001000030303A30300030313233343536373839E8
:0101100000EE
:0800EA00D2A78F807F057E0084
:0E00F200EF4E6009EF1F70011E144E70F722D2
:0700B90012011D7F057E000E
:1000C0007D01EDC39FE49E50097C010CEC70FC0D9A
:0200D00080F0BE
:0100D200220B
:100097007D6E7C00AB07AA06D3EB9400EA94004080
:1000A70007EB1B70F31A80F0ED1D70011CED4C700F
:0100B700E365
:0100B8002225
:0A011D00C2A61200EAC2A7D2A62271
:0A012700D2A61200EAC2A7C2A62267
:10007400C2A5C2A77F381200B97F081200B97F0158
:100084001200B90F12011D7F0C12011D7F057E00A5
:030094000200C0A7
:1000D300E4FDED2480FF12011DED90010093FF125A
:0600E30001270DBD05EC34
:0100E90022F4
:100003001200741200D3E50875F00A84ADF0E50818
:1000130075F00A84FC7F8012011DE50A90010693A6
:10002300FF120127E50B93FF120127900102E493CE
:10003300FF120127EC90010693FF120127ED93FFB6
:100043001201270508E508B43C1EE4F5080509E597
:100053000975F00A8485F00BE50975F00A84F50A41
:10006300E509B43C03E4F5097FE87E0312009780B9
:0100730095F7
:03000000020111E9
:0C011100787FE4F6D8FD75810B02000336
:00000001FF
