:10023300040900000000010800010E00010F000185
:060243000D00C180C18125
:0F025E00750E14750D14C290D291C293D29222D4
:0F026D00750E0F750D14C293D292D290C29122CA
:0F027C00750E14750D14C293D292D290C29122B6
:0F028B00750E14750D0FD293C292C290D29122AC
:0F029A00750E14750D14D293C292C290D2912298
:0F02A900750E14750D14D293C292D290C2912289
:0902B800D293D292D290D291228D
:0701FD001202A97FF47E014C
:10020400EF1FAA0670011E4A600BE4FDEDC394784B
:0502140050EE0D80F723
:0102190022C2
:1001C100300118E508D3950E5004D2948002C294F0
:0E01D100E508C394144006E4F50822C2942207
:1001DF00300018E50FD3950D5004D2958002C295CB
:0E01EF00E50FC394144006E4F50F22C29522DA
:10000E00E5A02410B41000400302012590002875CD
:10001E00F003A4C58325F0C5837302005802007552
:10002E000200840200930200C002012502011602A2
:10003E0000B20200CE020066020125020125020076
:10004E00DC0201250200FB020109850B09850C0A61
:10005E00E4F50BF50C020131850B09850C0A750BC5
:10006E0000750C01020131850B09850C0A750B0018
:10007E00750C02020131850B09850C0A750B007592
:10008E000C0302028B850B09850C0A750B00750C8F
:10009E0004E50A6404450960051201FD800312029D
:1000AE009A02029A850B09850C0A750B00750C05D0
:1000BE008071850B09850C0A750B00750C06805432
:1000CE00850B09850C0A750B00750C078055850B81
:1000DE0009850C0A750B00750C08E50A64084509BC
:1000EE0060051201FD800312027C02027C850B0961
:1000FE00850C0A750B00750C098028850B09850C7B
:10010E000A850B0B850C0C22850B09850C0A750BC9
:10011E0000750C0B02026D850B09850C0A750B0020
:07012E00750C0C12025E22A9
:03000B0002021AD4
:10021A00C0E0C0D0758CF8758A300508050F120148
:09022A00C11201DFD0D0D0E03296
:10024A00758901758CF8758A30D28CD2A9D2AF1211
:04025A00000E80FB17
:03000000020135C5
:0C013500787FE4F6D8FD75812002017C83
:1001410002024AE493A3F8E493A34003F68001F288
:1001510008DFF48029E493A3F85407240CC8C333BF
:10016100C4540F4420C8834004F456800146F6DF8E
:10017100E4800B0102040810204080900233E47EE9
:10018100019360BCA3FF543F30E509541FFEE49383
:10019100A360010ECF54C025E060A840B8E493A34A
:1001A100FAE493A3F8E493A3C8C582C8CAC583CA75
:1001B100F0A3C8C582C8CAC583CADFE9DEE780BE2D
:0102490000B4
:00000001FF
