:0B006B00C2911200A0D291AF0BAE0AB0
:10007600D3EF9400EE940040147D0A7C00ED1D70D1
:0D008600011CED4C70F7EF1F70E61E80E3CB
:01009300224A
:0900A0007F047EF8DEFEDFFA00A9
:0100A9002234
:0D000300C290E4FAFBD392900BEB4A605AD6
:10001000C3E50B941AE50A9400502275080075098F
:1000200032E5091509AE08700215084E6005120088
:100030006B80EE050BE50B70D7050A80D3D3E50B7B
:100040009405E50A940040C4750800750932E50975
:100050001509AE08700215084E600512006B80EE9F
:0A006000E50B150B70D7150A80D3CD
:01006A002273
:0300000002009467
:0C009400787FE4F6D8FD75810B020003B4
:00000001FF
