:10000300D3EF9400EE940040147D647C00ED1D70EA
:0D001300011CED4C70F7EF1F70E61E80E33E
:0100200022BD
:10005B0020B1117F327E0012000320B107B295B29E
:05006B009630B1FD22FA
:10003F0020B3187F327E0012000320B30E740A25FE
:0C004F0009F509E43508F50830B3FD227E
:10007000EF1FAC0670011E4C70F612005B02003FD1
:10002100D295C29675080075090A7F647E00120098
:0E00310070B297AF09AE08120070B29780EC63
:030000000200807B
:0C008000787FE4F6D8FD75810B020021AA
:00000001FF
