:1001AB003F065B4F666D7D077F6F777C395E79719C
:100192001208000000000000000000000000000043
:0801A20000000000021A000138
:10016100EF25E02408F8E6FC08E6C39409EC9400C6
:10017100500EEF25E02408F80806E6187012062252
:10018100EF25E02408F8E4F608F6EF04FF12016118
:01019100224B
:04008F008C1C8D1D1B
:100093007D647C00EE7053EFB40800504D9000A7D0
:1000A300F82828730200BF0200C30200CB0200CF6E
:1000B3000200D70200DB0200E30200E7C2A28002D3
:1000C300D2A2C2A3C2A48022C2A28002D2A2D2A37D
:1000D300C2A48016C2A28002D2A2C2A3D2A4800A62
:1000E300C2A28002D2A2D2A3D2A4E51D9001AB93F7
:1000F300F580D3ED9400EC94004007ED1D70F31CE4
:0501030080F0E4F5802E
:0101080022D4
:10010900AB07AA06D3EB9400EA9400404AAD19ACB8
:10011900187F077E0012008FAD17AC161F12008FD3
:10012900AD15AC141F12008FAD13AC121F12008F46
:10013900AD11AC101F12008FAD0FAC0E1F12008F46
:10014900AD0DAC0C1F12008FAD0BAC0A1F12008F46
:08015900EB1B70B01A80AD220F
:0E01BB007F0A7E001201097F0112016180F2AD
:03000000020003F8
:0C000300787FE4F6D8FD75811D02004AEC
:10000F000201BBE493A3F8E493A34003F68001F24B
:10001F0008DFF48029E493A3F85407240CC8C333F2
:10002F00C4540F4420C8834004F456800146F6DFC1
:10003F00E4800B0102040810204080900192E47EBE
:10004F00019360BCA3FF543F30E509541FFEE493B6
:10005F00A360010ECF54C025E060A840B8E493A37D
:10006F00FAE493A3F8E493A3C8C582C8CAC583CAA8
:10007F00F0A3C8C582C8CAC583CADFE9DEE780BE60
:0101AA000054
:00000001FF
