:030000000213CA1E
:0C13CA00787FE4F6D8FD75813B02141119
:100A630004AE530A57485526BD0D26500D954446EE
:100A7300AAB9056A4D09AD4224AEB604AE4A6A4D21
:100A8300BE0A4D520D25465D52BA0B544E0D6A43B4
:100A9300296D37095B4B749BC10497540A4B485B20
:100AA30025BC06A55006D4454ADAB802B64D095707
:100AB300422497B704974A664B3E0D4A510EA5460A
:100AC30056D4BA05AD4E02B644393738092E4B7C9D
:100AD30096BF0C95530D4A486DA53B0B554F056AC0
:100AE300454AADB9025D4D092D422C95B60A954A8A
:100AF3007B4ABD06CA510B5546555ABB04DA4E0A0A
:100B03005B43352BB8052B4C8A953F0E955206AAAD
:100B1300487AD53C0AB54F04B6454A57390A574D6A
:100B23000526423E93350D954975AABE056A5109BE
:100B33006D4654AEBB04AD4F0A4D434D26B70D254C
:100B43004B8D52BF0B54520B6A47696D3C095B5086
:100B5300049B454A4BB90A4B4DAB25C206A5540627
:100B6300D4496ADA3D0AB6510937465497BB04970C
:100B73004F064B4436A5370EA54A86B2BF05AC5384
:100B83000AB6475936BC092E500C96454D4AB80D46
:100B93004A4C0DA54125AAB6056A497AADBD025D49
:100BA30052092D475C95BA0A954E0B4A434B55376C
:100BB3000AD54A955ABF04BA530A5B48652BBC054C
:100BC3002B500A9345474AB906AA4C0AD54124DA61
:100BD300B604B64A69573D0A4E510D26465E933A0E
:100BE3000D534D05AA4336B537096D4BB4AEBF045B
:100BF300AD530A4D486D25BC0D254F0D52445DAADA
:100C0300380B5A4C056D4124ADB6049B4A7A4BBE52
:100C13000A4B510AA5465B52BA06D24E0ADA42354E
:100C23005B3709374B8497C1049753064B4866A536
:100C33003C0EA54F06B2444AB6380AAE4C092E42C2
:100C43003C97350C96497D4ABD0D4A510DA5455536
:100C5300AABA056A4E0A6D43452EB7052D4B8A95F0
:100C6300BF0A95530B4A476B553B0AD54F055A4567
:100C73004A5D380A5B4C052B423A93B60693497793
:100C830029BD06AA510AD54654DABA04B64E0A5704
:100C9300434527380D264A8E933E0D52520DAA47DF
:100CA30066B53B056D4F04AE454A4EB90A4D4C0D32
:100CB30015412D92B5001F3B5A7897B5D4F3011116
:100CC3000130014E0003030601040602050003057B
:100CD300323020202D20202D2020200020203A20DB
:100CE300203A2020004E4C3A20202D20202D202079
:100CF3002050494E47004E4C3A20202D20202D20D5
:100D0300202052554E200074696D65723A202020D0
:100D1300202D20202D2020002020202020202020D6
:0E0D230020202020202020200074696D650013
:1017BD00C18301230C012200013B00C102C104C100
:0117CD00011A
:06115900AD14AC13AF1051
:10115F00EF14B40D0040030212A290117775F00343
:10116F00A4C58325F0C5837302119E0211B202112B
:10117F00C60211DA0211EE02120202121602122A2E
:10118F0002123E02125202126602127A02128E747A
:10119F00632DF582740A3CF583E49354087002C3FF
:1011AF0022D32274632DF582740A3CF583E49354A1
:1011BF00047002C322D32274632DF582740A3CF5A6
:1011CF0083E49354027002C322D32274632DF582F9
:1011DF00740A3CF583E49354017002C322D3227442
:1011EF00642DF582740A3CF583E49354807002C336
:1011FF0022D32274642DF582740A3CF583E4935450
:10120F00407002C322D32274642DF582740A3CF518
:10121F0083E49354207002C322D32274642DF58289
:10122F00740A3CF583E49354107002C322D32274E2
:10123F00642DF582740A3CF583E49354087002C35D
:10124F0022D32274642DF582740A3CF583E49354FF
:10125F00047002C322D32274642DF582740A3CF504
:10126F0083E49354027002C322D32274642DF58257
:10127F00740A3CF583E49354017002C322D32274A1
:10128F00652DF582740A3CF583E49354807002C394
:04129F0022D322C371
:0112A3002228
:100D3100E50CC4540FFBE50C540FFAEBC454F02A34
:100D4100F50CE50DC4540FFBE50D540FFAEBC4543B
:100D5100F02AF50DE50EC4540FFBE50E540FFAEB26
:100D6100C454F02AF50EE50C2005072463FFE43393
:100D7100800624FFFFE434FFFE7C007D031209EEB0
:100D81008E138F1474652514F582740A3513F58357
:100D9100E493FE5460FB7805FF08800103D8FDFB56
:100DA100EE541FFABB010514F50F8005EA241EF568
:100DB1000FE50DC3940AE50D500B900CB793250E6A
:100DC100FFE433801525E024ADF582E4340CF5838E
:100DD100740193250EFFE4933400CF24FFF512EF45
:100DE10034FFF511E50DD39402400EE50C54037068
:100DF100080512E51270020511AF0F7E00C3E5125E
:100E01009FE5119E4079E5129FF512E5119EF511BE
:100E1100750D017510011211599206C207200604C1
:100E21007B1D80027B1E74632514F582740A3513C1
:100E3100F583E49354F0FA7804FF08800103D8FDA8
:100E4100FAEBFF7E00C3E5129FE5119E402CE512EF
:100E51009FF512E5119EF5110510E50DB50209B2D8
:100E610007200706050D8002050D12115992062073
:100E710006047B1D80CB7B1E80C7E512020F05C3D4
:100E8100E50F9512F50FE50C7007750C63D205801F
:100E910002150C74FD2514F51474FF3513F5137543
:100EA1000D0CFE74632514F582740A3EF583E493F8
:100EB10054F0FA7804FF08800103D8FDFA70057533
:100EC100100C800375100DC20712115992062006ED
:100ED100047B1D80027B1EE50FD39B4023E50F9B06
:100EE100F50F1510200702150DE50DB50202B20729
:100EF10012115992062006047B1D80DB7B1E80D7D0
:100F0100C3EB950F04F50EA2059200E50C75F00AEE
:100F110084FB7804FF08800123D8FDFBE50C75F004
:100F21000A84AAF0EB4AF532E50D75F00A84FB78E4
:100F310004FF08800123D8FDFBE50D75F00A84AAA2
:100F4100F0EB4AF530E50E75F00A84FB7804FF08F2
:100F5100800123D8FDFBE50E75F00A84AAF0EB4A67
:020F6100F53663
:010F6300226B
:1015C90074642FFF1313543F2F75F00784AEF0EEA8
:1015D9002BFEED900CC6932EFEEF54037007EDC35E
:0D15E900940350011EEE75F0078485F02A72
:0115F60022D2
:0B000E00EF1FAC0670011E4C70F622C4
:10162200E4FDD2A47F08FE12000EC2A47F507E0009
:1016320012000ED2A47F0E7E0012000EA2A4E4338A
:08164200FD7F147E0002000E82
:1016B800E4FB7D08C2A4EBC313FBD2A430A403430C
:0D16C80003807F047E0012000EDDE9AF03F9
:0116D50022F2
:02174C00AD07E7
:10174E007B08C2A4ED1392A47F057E0012000ED278
:07175E00A4EDC313FDDBEB5A
:011765002261
:10145600E4FAFFFDFCF50FF50EF50DF50C1216225C
:101466007FCC12174C7F4412174C1216227FCC12D7
:10147600174C7FBE12174C1216B8AA071216B8AD33
:1014860007EDFCEAFDC394FFEC940F5005E4F52448
:101496008010EDF4FFECF4FEEF2402FDE43EFC7553
:1014A6002401E4120934E4FBFA7920783F12082972
:0D14B600E4FBFA79A0784012073812096DA6
:0114C3002206
:0A164A00C203E4F521C2A37F14FEE1
:10165400D3EF9400EE940040147D6E7C00ED1D7079
:0D166400011CED4C70F7EF1F70E61E80E3D7
:011671002256
:0516D600E50C24C0FF3B
:1016DB00C2A5C2A68F807F017E00121654D2A77FAF
:0916EB00017E00121654C2A72270
:07169800900CDFE53993FF20
:10169F00D2A5C2A68F807F017E00121654D2A77FDB
:0916AF00017E00121654C2A722AC
:101526007F381216DB7F0C1216DB7F061216DB7F66
:10153600011216DB7F811216DBE4F539900CD3120B
:10154600169B0539E539C3940E40F17FC01216DBB0
:10155600E4F5391216980539E539C3940840F422A2
:06176600C2A2C2A0D2A243
:10176C00EFD2A2753908A2E092A1C2A0D2A0C313F5
:04177C00D539F32246
:10179500D2A2753908A2A192E7D2A0C2A0C313D5DF
:0417A50039F3FF22F3
:10159A00AD297F06121578E52975F00A84C454F03E
:1015AA00FFE52975F00A84EF25F0F52BE4FD7F8E1F
:0F15BA00AE05121766AF0612176CD2A0C2A2229E
:0A17DD00121766121795D2A0C2A2DF
:0117E70022DF
:0317A9001217DD37
:1017AC00EFC4540FFEEF540FFDEE75F00AA42DFF9D
:0117BC00220A
:0E17CF00C2A2C2A01215B67D807F8E0215BA8E
:0612A4008F0CAB05AA044B
:1012AA007C037DE8AF03AE02120A008F0F7C037D38
:1012BA00E8AF03AE02120A007E007F64CFCDCFCE24
:1012CA00CCCE120A008F0E7C007D64AF03AE0212F0
:1012DA000A007E007F0ACFCDCFCECCCE120A008F75
:1012EA000DAE02AF037C007D0A120A00AB05E524AD
:1012FA00640170071216D67F2D80081216D6E50FE4
:10130A002430FF12169FE50E2430FF12169FE50DBA
:10131A002430FF12169F7F2E12169FEB2430FF12E5
:0C132A00169F7FDF12169F7F4312169F54
:011336002294
:10156600AD237F08121578AD227F0B121578AD3B9F
:021576007F0EE6
:10157800ED75F00A84ABF0ED75F00A84FAEF24C03B
:10158800FF1216DBEA2430FF12169FEB2430FF020D
:02159800169F9C
:04167200AD377F0908
:10167600ED75F00A84ABF0ED75F00A84FAEF24807C
:10168600FF1216DBEA2430FF12169FEB2430FF020E
:02169600169F9D
:1016F400ED540FFBEDC4540FFAEF24C0FF1216DBB8
:0E170400EA2430FF12169FEB2430FF02169FDE
:0B133700AB37AD33AF281215C9AF2A49
:10134200AB077F8C1216DBEBB40700507A90135672
:10135200F82828730213BA02136B02137402138261
:1013620002139002139E0213AC7F4D12169F7F4F01
:10137200804D7F5412169F7F5512169F7F458044E1
:101382007F5712169F7F4512169F7F4480367F54E7
:1013920012169F7F4812169F7F5580287F4612168D
:1013A2009F7F5212169F7F49801A7F5312169F7F8A
:1013B2005412169F7F41800C7F5312169F7F551245
:0813C200169F7F4E12169F22B8
:10001E0020B3347F097E0012165420B32AC203E4A3
:10002E00F521E52D701EE53A701A12164FD2A33047
:10003E008E04C28E800E0534E534B40307E4F52D2C
:10004E00F53AF53430B3FD30B0030201437F097E3B
:10005E000012165430B00302014312164AD2A330D6
:10006E00B0FDE53464027057053AE53AB40407E48E
:10007E00F53AF52DD202E53A14603314603414606B
:10008E0035240360030201437F0C1216DB7FC0127E
:10009E0016DBE4F539E539900D0A93FF12169F052C
:1000AE0039E539C3941040ED1215660201437FCF36
:1000BE0080067FCC80027FC91216DB7F0F8059E548
:1000CE00347072052DE52DB40703E4F52DE52DB43E
:1000DE00070050619000E9F828287302012B0200F6
:1000EE00FE02011402011802011C02012002012469
:1000FE00C28C7FC71216DB7F0F1216DB1215A1E51D
:10010E002B4480FD80237FC4800E7FC1800A7F8AAE
:10011E0080067F8780027F841216DB80187F0C1288
:10012E0016DBD28C1215A1AD2B7F801215BA7D80F5
:10013E007F8E1215BAE52D7003020667E53A60034D
:10014E0002066730B1030203DD7F0AFE1216543039
:10015E00B1030203DD12164AD2A330B1FDE52D2400
:10016E00FE603C14606C14700302021314700302E0
:10017E0002BF147003020361240560030203DD0550
:10018E0029E529B43C03E4F52912159AAD2B7F809D
:10019E001215BA7D807F8E1215BA7FC70203DA055B
:1001AE002CE52CB43C03E4F52CAD2C7F0312157812
:1001BE00E52C75F00A84C454F0FFE52C1215ADAD94
:1001CE002B7F821215BA7D807F8E1215BA7FC402E4
:1001DE0003DA0531E531B41803E4F531AD31E4FF4E
:1001EE00121578E53175F00A84C454F0FFE531122A
:1001FE0015ADAD2B7F841215BA7D807F8E1215BA88
:10020E007FC10203DA0537E533640C6023E53364FE
:10021E000A601DE53364086017E53364076011E575
:10022E00336405600BE53364036005E533B40109FF
:10023E00E537C394204052804DE53364026009E5F2
:10024E0037C3941F4043803EE52854037031E528A0
:10025E0075F06484E5F0701EAF28FE7C017D90126F
:10026E000A00ED4C7023E537B41E028019E537C342
:10027E00941D40158010E537D3941D400C8007E582
:10028E0037C3941D4003753701121337121672E5EA
:10029E003775F00A84C454F0FFE5371215ADAD2B57
:1002AE007F861215BA7D807F8E1215BA7F8A020361
:1002BE00DA0533E533B40D03753301E533640B60B2
:1002CE0011E5336409600BE53364066005E533B46C
:1002DE00040CE537D3941E404E75371E8046E53329
:1002EE0064027043E52854037030E52875F0648489
:1002FE00E5F0701AAF28FE7C017D90120A00ED4CDD
:10030E007025E537D3941D401E75371D8016E537D1
:10031E00D3941D401275371D800AE537D3941C40C7
:10032E000675371C121672121337AD337F0612166E
:10033E0076E53375F00A84C454F0FFE5331215AD3B
:10034E00AD2B7F881215BA7D807F8E1215BA7F87EE
:10035E000203DA0528E528B46403E4F528E53364DE
:10036E00027040E5285403702DE52875F06484E58D
:10037E00F07017AF28FE7C017D90120A00ED4C70D4
:10038E0022E537D3941D401B8007E537D3941D40DB
:10039E001275371D800AE537D3941C400675371C3D
:1003AE00121672121337AD287F03121676E52875D2
:1003BE00F00A84C454F0FFE5281215ADAD2B7F8CE6
:1003CE001215BA7D807F8E1215BA7F841216DB301D
:1003DE00B2030206677F0A7E0012165430B2030281
:1003EE00066712164AD2A330B2FDE52D24FE603CFC
:1003FE0014606C1470030204A014700302054514FB
:10040E0070030205E3240560030206671529E5293A
:10041E00B4FF0375293B12159AAD2B7F801215BAC6
:10042E007D807F8E1215BA7FC7020664152CE52CCF
:10043E00B4FF03752C3BAD2C7F03121578E52C759C
:10044E00F00A84C454F0FFE52C1215ADAD2B7F825B
:10045E001215BA7D807F8E1215BA7FC402066415FE
:10046E0031E531B4FF03753117AD31E4FF12157864
:10047E00E53175F00A84C454F0FFE5311215ADADC7
:10048E002B7F841215BA7D807F8E1215BA7FC10222
:10049E0006641537E533640C6023E533640A601D8A
:1004AE00E53364086017E53364076011E5336405CE
:1004BE00600BE53364036005E533B40109E537707D
:1004CE004E75371F8049E53364026009E537703F8A
:1004DE0075371E803AE5285403702DE52875F064B3
:1004EE0084E5F0701AAF28FE7C017D90120A00EDB3
:1004FE004C701CE5377002800AE5377012800DE5EE
:10050E0037700C75371D8007E537700375371C1271
:10051E001337121672E53775F00A84C454F0FFE5EE
:10052E00371215ADAD2B7F861215BA7D807F8E12D8
:10053E0015BA7F8A020664D5330375330CE533642E
:10054E000B6011E5336409600BE53364066005E565
:10055E0033B4040CE537D3941E404E75371E8046D7
:10056E00E53364027043E52854037030E52875F0D6
:10057E006484E5F0701AAF28FE7C017D90120A00AB
:10058E00ED4C7025E537D3941D401E75371D801632
:10059E00E537D3941D401275371D800AE537D39485
:1005AE001C400675371C121672121337AD337F06B8
:1005BE00121676E53375F00A84C454F0FFE5331253
:1005CE0015ADAD2B7F881215BA7D807F8E1215BAB0
:1005DE007F870206641528E528B4FF03752863E5B6
:1005EE0028B46403E4F528E53364027040E528542A
:1005FE0003702DE52875F06484E5F07017AF28FEC2
:10060E007C017D90120A00ED4C7022E537D3941DCB
:10061E00401B8007E537D3941D401275371D800AA5
:10062E00E537D3941C400675371C12167212133719
:10063E00AD287F03121676E52875F00A84C454F0AF
:10064E00FFE5281215ADAD2B7F8C1215BA7D807F7C
:10065E008E1215BA7F841216DBE53A70030207304C
:10066E00E52D600302073020B15A7F0AFE121654A0
:10067E0020B15112164AD2A330B1FDE53A24FE60E4
:10068E001814602A2402703C053BE53BB43C03E49D
:10069E00F53B1215747FCF80280522E522B43C036A
:1006AE00E4F522AD227F0B1215787FCC8013052343
:1006BE00E523B41803E4F523AD237F081215787FE4
:1006CE00C91216DB20B25B7F0A7E0012165420B2CE
:1006DE005112164AD2A330B2FDE53A24FE60181428
:1006EE00602A2402703C153BE53BB4FF03753B3B8F
:1006FE001215747FCF80281522E522B4FF037522D0
:10070E003BAD227F0B1215787FCC80131523E5238A
:10071E00B4FF03752317AD237F081215787FC91216
:03072E0016DB22B5
:10171200758911E4F58CF58A758D3C758BB0D2AF65
:0D172200D2A9D2ABD28AC288D28CC28E224C
:1015F700E531B5230BE52CB52206E5297002D28E1D
:10160700E531B52315E5222401FFE433FEE52CB5CA
:0B1617000708E4B50604C28ED2A3222F
:10178000C2A37F057E00121654D2A3052FE52FB504
:051790003502C2042235
:1014C4007590FF1215261217CF121712D2B7C2A3A6
:1014D4007F507E00121654D2A312001EA20392B7AC
:1014E4003002031215F7E52C7024E5297020E5314C
:1014F400D3940C4008E53124F4F535800CE53170C3
:101504000575350C8003853135852927D2043004CF
:10151400C812178012001EE527652960F785292760
:0215240080B78E
:03000B00020F647D
:100F6400C0E0C0F0C083C082C0D075D000C000C053
:100F740001C002C003C004C005C006C0077F8112BF
:100F840017A98F297F831217A98F2C7F851217DD4C
:100F94001217AC8F317F871217DD1217AC8F377F92
:100FA400891217DD1217AC8F337F8D1217DD1217DC
:100FB400AC8F28200315E52E6529600585292E05AB
:100FC40021E521B40A05D203752100E534640160EA
:040FD400030210A064
:100FD800F50A85280BFEE50B54F0FF7C007D0A120C
:100FE80009EEEF24D0FFE50B2FFF750800EF540F33
:100FF800F509AE08FF0C7D90120A00ED4C6015AEA5
:1010080008AF097C007D64120A00ED4C600AE5090E
:1010180054037004D2018002C201C20585280C85E0
:10102800330D85370E120D317FC01216DB7539006E
:10103800E539200105900CE88003900CF993FF1224
:10104800169F0539E539C3941040E5AD327F031288
:1010580016F4AD307F061216F4AD367F091216F479
:1010680012001EE534640160F77FC01216DB753983
:1010780000E539900D1B93FF12169F0539E539C31A
:10108800941040ED7FC01216DB75390012169805D2
:0810980039E539C3940840F466
:1010A000E534640270587FC01216DB753900E539EB
:1010B000900D0A93FF12169F0539E539C39410402D
:1010C000ED12156612001EE534640260F77FC0124F
:1010D00016DB753900E539900D1B93FF12169F053D
:1010E00039E539C3941040ED7FC01216DB75390025
:1010F0001216980539E539C3940840F4802C12146F
:1011000056EF24FBF526EE34FFF525AD26FC7F09CE
:101110001212A48000AD297F06121578AD2C7F0332
:10112000121578AD31E4FF121578121672AD337FC7
:1011300006121676AD287F03121676121337D007E3
:10114000D006D005D004D003D002D001D000D0D03A
:09115000D082D083D0F0D0E0324F
:03001B0002172F9A
:10172F00C0E0C0D0758D3C758BB0D28E0538E538D2
:0D173F00B40A05753800B2A3D0D0D0E03256
:100731000209D9E86480F8E933E83360110460F014
:10074100ED33EC337009E8FCE9FDEAFEEBFF22042E
:1007510060DED3EB9FEA9EE99DE8C2E78CF0C2F729
:1007610095F0400CE8CCF8E9CDF9EACEFAEBCFFBF5
:100771001209A485D0F05804700320D5B3E80470A1
:10078100075002B2D50209E392D5EC0460F7E4CC3C
:10079100C0E0C398F8603B94186008400DD0E0FBBE
:1007A1000209BBE4FBFAC9FC8028E830E406E4C98D
:1007B100FBE4CAFCE830E305E4C9CACBFCE8540712
:1007C1006010F8C3E913F9EA13FAEB13FBEC13FC1D
:1007D100D8F130F52FC3E49CFCEF9BFFEE9AFEEDC0
:1007E10099FDD0E0FBEF4E4D4C701222DB03020964
:1007F100E0EC2CFCEF33FFEE33FEED33FDED30E7A3
:10080100EB0209BBEF2BFFEE3AFEED39FDD0E0FB29
:1008110050130BBB00030209E3ED13FDEE13FEEFD2
:0808210013FFEC13FC0209BBFC
:10082900EC4D6011E8497017ED33EC3304600DE4C9
:10083900FCFFFEFD22E933E8330470F80209D912FE
:1008490009A458046009E4CC2481500628500902FF
:1008590009E32840030209E0C0E0EB4A7044B9808B
:1008690006D0E0FB0209CFEF4E701CBD8008EBFFFC
:10087900EAFEE9FD80EBE98DF0A4FEE5F00209123C
:10088900E9CDF9EAFEEBFFEF89F0A4FCE5F0CE89AA
:10089900F0A42EFFE435F0CD89F0A42DFEE435F067
:1008A9008067EF4E7005BD80D780C3EF8BF0A4AC95
:1008B900F0EE8BF0A42CFCE435F0F8EF8AF0A42CD0
:1008C900E5F038FCE433CB8DF0A42CFCE5F03BF8E3
:1008D900EE8AF0A42CFCE5F038F8E433CF89F0A4D3
:1008E9002CFCE5F038CF3400CE89F0A42FFFE5F0D9
:1008F9003EFEE433C98DF0A42EFEE5F039CD8AF031
:10090900A42FFFE5F03EFEE43DFD33D0E0FB5007A8
:100919000BBB000F0209E3EC2CFCEF33FFEE33FEB7
:06092900ED33FD0209BBE5
:10092F0075F020800E75F010800575F0087D007E43
:10093F00007F003392D530D503120A55EC334010A7
:10094F00EF33FFEE33FEED33FDEC33FCD5F0ED224C
:0E095F00E5F0247EA2D513CC92E7CDCEFF2288
:10096D00EDD2E7CD33EC3392D524814006E4FFFE82
:10097D00FDFC22FCE4CFCECDCC24E0501174FF80E1
:10098D00EDC3CC13CCCD13CDCE13CECF13CF04707E
:07099D00F030D5DE020A551F
:1009A400E9D2E7C933E833F892D5EDD2E7CD33EC99
:0709B40033FC5002B2D52212
:1009BB00EC30E7100FBF000C0EBE00080DBD00049D
:1009CB000BEB6014A2D5EB13FCED92E7FD2274FF49
:1009DB00FCFDFEFF22E480F8A2D574FF13FC7D80A2
:0309EB00E480EFB6
:1013D6000214C4E493A3F8E493A34003F68001F255
:1013E60008DFF48029E493A3F85407240CC8C33318
:1013F600C4540F4420C8834004F456800146F6DFE7
:10140600E4800B01020408102040809017BDE47EA2
:10141600019360BCA3FF543F30E509541FFEE493DB
:10142600A360010ECF54C025E060A840B8E493A3A2
:10143600FAE493A3F8E493A3C8C582C8CAC583CACD
:10144600F0A3C8C582C8CAC583CADFE9DEE780BE85
:0117CE00001A
:1009EE00EF8DF0A4A8F0CF8CF0A428CE8DF0A42E1D
:0209FE00FE22D7
:100A0000BC000BBE0029EF8DF084FFADF022E4CCDA
:100A1000F875F008EF2FFFEE33FEEC33FCEE9DECA3
:100A2000984005FCEE9DFE0FD5F0E9E4CEFD22EDE9
:100A3000F8F5F0EE8420D21CFEADF075F008EF2F33
:100A4000FFED33FD4007985006D5F0F222C398FD24
:050A50000FD5F0EA22C1
:0E0A5500C3E49FFFE49EFEE49DFDE49CFC22B2
:00000001FF
