:0A01D800C0F9A4B0999282F880905B
:10000E00759703E4F593F591F5957594FF7592FF49
:10001E007596FFF517F508C291C290758911D28CAD
:10002E00C288D2A9C2A8D2AFC2AFD2901201E2C288
:10003E009030B2FDC200D2A8E4F58DF58BC28FD2FE
:10004E008ED2AFE58DC3941E40F9C28EC2A8300089
:10005E0029752100850C22E522752200F521E50E79
:10006E004222E4AE21AF22FC7D0C1200D08E218FF5
:10007E00227D3A1200E28E218F22200007E4F52124
:10008E00F522B291852123852224E526B52408E5A3
:10009E0025B52303E4F527E52665247004E52565DB
:1000AE002360020527E527C394035003020036E4BC
:1000BE00F527852325852426AF26AE251201370286
:0200CE000036FA
:030003000201CD2A
:0B01CD00858D0C858B0ED200C2A8327D
:03000B0002018966
:10018900C0E0C0D0758CFD758A77E508146011143C
:1001990060182402701D850D8075A0FD0508801367
:1001A900850B8075A0FE0508800985098075A0FB6F
:0801B900750800D0D0D0E0323F
:04013700AB07AA0662
:10013B007C007D641200E28F297C007D64AF03AEEE
:10014B00021200E2AA04AB057C007D0AAF03AE02EB
:10015B001200E28F287C007D0AAF03AE021200E290
:10016B00AF05E5299001D893F529E52893F528EFFC
:0D017B0093C2AF85290985280BF50DD2AF81
:010188002254
:0601E200E4FF0FBF64FC06
:0101E80022F4
:030000000201C139
:0C01C100787FE4F6D8FD75812902000E5D
:1000D000EF8DF0A4A8F0CF8CF0A428CE8DF0A42E44
:0200E000FE22FE
:1000E200BC000BBE0029EF8DF084FFADF022E4CC02
:1000F200F875F008EF2FFFEE33FEEC33FCEE9DECCB
:10010200984005FCEE9DFE0FD5F0E9E4CEFD22ED10
:10011200F8F5F0EE8420D21CFEADF075F008EF2F5A
:10012200FFED33FD4007985006D5F0F222C398FD4B
:050132000FD5F0EA22E8
:00000001FF
