:10025E003F065B4F666D7D077F6F777C395E7971E8
:10024500120800000000000000000000000000008F
:0802550000000000021A000184
:10021400EF25E02408F8E6FC08E6C39409EC940012
:10022400500EEF25E02408F80806E618701206229E
:10023400EF25E02408F8E4F608F6EF04FF120214B0
:010244002297
:040142008C1C8D1D67
:100146007D017C00EE7053EFB40800504D90015ACB
:10015600F828287302017202017602017E020182EA
:1001660002018A02018E02019602019AC2A280024F
:10017600D2A2C2A3C2A48022C2A28002D2A2D2A3C9
:10018600C2A48016C2A28002D2A2C2A3D2A4800AAE
:10019600C2A28002D2A2D2A3D2A4E51D90025E938F
:1001A600F580D3ED9400EC94004007ED1D70F31C30
:0501B60080F0E4F5807B
:0101BB002221
:1001BC00AB07AA06D3EB9400EA9400404AAD19AC05
:1001CC00187F077E00120142AD17AC161F120142B8
:1001DC00AD15AC141F120142AD13AC121F1201422B
:1001EC00AD11AC101F120142AD0FAC0E1F1201422B
:1001FC00AD0DAC0C1F120142AD0BAC0A1F1201422B
:08020C00EB1B70B01A80AD225B
:100003007F017E001201BCC3E50B9409E50A94004D
:10001300500A050BE50B70E8050A80E4E4F50AF5E0
:100023000BC3E50D9405E50C9400500A050DE50D91
:1000330070CE050C80CAE4F50CF50DC3E50F9409E9
:10004300E50E9400500A050FE50F70B4050E80B05D
:10005300E4F50EF50FC3E5119405E5109400500A7D
:100063000511E511709A05108096E4F510F511C39A
:10007300E5139409E512940050290513E513700262
:100083000512E515640245146003020003E51364D9
:100093000445126003020003F512F513F514F51578
:1000A300020003E4F512F5130515E51570020514B6
:0300B30002000345
:030000000200B645
:0C00B600787FE4F6D8FD75811D0200FD86
:1000C200020003E493A3F8E493A34003F68001F251
:1000D20008DFF48029E493A3F85407240CC8C3333F
:1000E200C4540F4420C8834004F456800146F6DF0E
:1000F200E4800B0102040810204080900245E47E57
:10010200019360BCA3FF543F30E509541FFEE49302
:10011200A360010ECF54C025E060A840B8E493A3C9
:10012200FAE493A3F8E493A3C8C582C8CAC583CAF4
:10013200F0A3C8C582C8CAC583CADFE9DEE780BEAC
:01025D0000A0
:00000001FF
